{
  "_format": "hh-sol-artifact-1",
  "contractName": "WavePortal",
  "sourceName": "contracts/WavePortal.sol",
  "abi": [
    {
      "inputs": [],
      "stateMutability": "nonpayable",
      "type": "constructor"
    },
    {
      "inputs": [],
      "name": "getStats",
      "outputs": [
        {
          "internalType": "uint256",
          "name": "",
          "type": "uint256"
        }
      ],
      "stateMutability": "view",
      "type": "function"
    },
    {
      "inputs": [],
      "name": "getTotalWaves",
      "outputs": [
        {
          "internalType": "uint256",
          "name": "",
          "type": "uint256"
        }
      ],
      "stateMutability": "view",
      "type": "function"
    },
    {
      "inputs": [],
      "name": "wave",
      "outputs": [],
      "stateMutability": "nonpayable",
      "type": "function"
    }
  ],
  "bytecode": "0x608060405234801561001057600080fd5b5061003c6040518060600160405280602181526020016109ee6021913961004160201b6102f91760201c565b6101c4565b6100dd816040516024016100559190610142565b6040516020818303038152906040527f41304fac000000000000000000000000000000000000000000000000000000007bffffffffffffffffffffffffffffffffffffffffffffffffffffffff19166020820180517bffffffffffffffffffffffffffffffffffffffffffffffffffffffff83818316178352505050506100e060201b60201c565b50565b60008151905060006a636f6e736f6c652e6c6f679050602083016000808483855afa5050505050565b600061011482610164565b61011e818561016f565b935061012e818560208601610180565b610137816101b3565b840191505092915050565b6000602082019050818103600083015261015c8184610109565b905092915050565b600081519050919050565b600082825260208201905092915050565b60005b8381101561019e578082015181840152602081019050610183565b838111156101ad576000848401525b50505050565b6000601f19601f8301169050919050565b61081b806101d36000396000f3fe608060405234801561001057600080fd5b50600436106100415760003560e01c80636fe15b44146100465780639a2cdc0814610050578063c59d48471461006e575b600080fd5b61004e61008c565b005b6100586101e8565b60405161006591906106a9565b60405180910390f35b610076610233565b60405161008391906106a9565b60405180910390f35b600160008082825461009e91906106e0565b92505081905550600160405180604001604052803373ffffffffffffffffffffffffffffffffffffffff168152602001600054815250908060018154018082558091505060019003906000526020600020906002020160009091909190915060008201518160000160006101000a81548173ffffffffffffffffffffffffffffffffffffffff021916908373ffffffffffffffffffffffffffffffffffffffff1602179055506020820151816001015550506001600260003373ffffffffffffffffffffffffffffffffffffffff1673ffffffffffffffffffffffffffffffffffffffff16815260200190815260200160002060008282546101a091906106e0565b925050819055506101e66040518060400160405280600d81526020017f257320686173207761766564210000000000000000000000000000000000000081525033610392565b565b600061022b6040518060400160405280601781526020017f5765206861766520256420746f74616c2077617665732100000000000000000081525060005461042e565b600054905090565b60006102b46040518060400160405280601c81526020017f2573207761766564206120746f74616c206f662025642074696d65730000000081525033600260003373ffffffffffffffffffffffffffffffffffffffff1673ffffffffffffffffffffffffffffffffffffffff168152602001908152602001600020546104ca565b600260003373ffffffffffffffffffffffffffffffffffffffff1673ffffffffffffffffffffffffffffffffffffffff16815260200190815260200160002054905090565b61038f8160405160240161030d91906105e9565b6040516020818303038152906040527f41304fac000000000000000000000000000000000000000000000000000000007bffffffffffffffffffffffffffffffffffffffffffffffffffffffff19166020820180517bffffffffffffffffffffffffffffffffffffffffffffffffffffffff8381831617835250505050610569565b50565b61042a82826040516024016103a892919061060b565b6040516020818303038152906040527f319af333000000000000000000000000000000000000000000000000000000007bffffffffffffffffffffffffffffffffffffffffffffffffffffffff19166020820180517bffffffffffffffffffffffffffffffffffffffffffffffffffffffff8381831617835250505050610569565b5050565b6104c68282604051602401610444929190610679565b6040516020818303038152906040527f9710a9d0000000000000000000000000000000000000000000000000000000007bffffffffffffffffffffffffffffffffffffffffffffffffffffffff19166020820180517bffffffffffffffffffffffffffffffffffffffffffffffffffffffff8381831617835250505050610569565b5050565b6105648383836040516024016104e29392919061063b565b6040516020818303038152906040527f07c81217000000000000000000000000000000000000000000000000000000007bffffffffffffffffffffffffffffffffffffffffffffffffffffffff19166020820180517bffffffffffffffffffffffffffffffffffffffffffffffffffffffff8381831617835250505050610569565b505050565b60008151905060006a636f6e736f6c652e6c6f679050602083016000808483855afa5050505050565b61059b81610736565b82525050565b60006105ac826106c4565b6105b681856106cf565b93506105c6818560208601610772565b6105cf816107d4565b840191505092915050565b6105e381610768565b82525050565b6000602082019050818103600083015261060381846105a1565b905092915050565b6000604082019050818103600083015261062581856105a1565b90506106346020830184610592565b9392505050565b6000606082019050818103600083015261065581866105a1565b90506106646020830185610592565b61067160408301846105da565b949350505050565b6000604082019050818103600083015261069381856105a1565b90506106a260208301846105da565b9392505050565b60006020820190506106be60008301846105da565b92915050565b600081519050919050565b600082825260208201905092915050565b60006106eb82610768565b91506106f683610768565b9250827fffffffffffffffffffffffffffffffffffffffffffffffffffffffffffffffff0382111561072b5761072a6107a5565b5b828201905092915050565b600061074182610748565b9050919050565b600073ffffffffffffffffffffffffffffffffffffffff82169050919050565b6000819050919050565b60005b83811015610790578082015181840152602081019050610775565b8381111561079f576000848401525b50505050565b7f4e487b7100000000000000000000000000000000000000000000000000000000600052601160045260246000fd5b6000601f19601f830116905091905056fea26469706673582212202db1ed2fc8b0ef8ba16d4d670cb8d337b0a63fde00d707a39e86d8852cff727164736f6c634300080400334a757374206120726567756c617220736d61727420636f6e747261637421203a3e",
  "linkReferences": {},
  "deployedLinkReferences": {}
}